:1000000049C061C060C05FC05EC05DC05CC05BC015
:100010005AC059C058C057C056C055C054C053C02C
:1000200052C051C050C0BBC0D4C0DCC0DBC0DAC0BD
:10003000B1C0D8C0D7C0D6C0D5C0D4C0D3C0D2C03C
:10004000D1C0D0C0CFC0A2C0CDC0CCC0CBC0CAC070
:10005000C9C0A9C0C7C0C6C0C5C0C4C0C3C0C2C093
:10006000C1C0C0C0BFC09BC0B4C0BCC0BBC0BAC0D0
:1000700091C0B8C0B7C0B6C0B5C0B4C0B3C0B2C0FC
:10008000B1C0B0C0AFC082C0ADC0ACC0ABC0AAC030
:10009000A9C089C011241FBECFEDCDBF20E0A6E6C8
:1000A000B0E001C01D92A037B207E1F710E0A0E672
:1000B000B0E0EAEFF5E002C005900D92A636B10778
:1000C000D9F71DD098C29CCFCF93C82F949860E0E9
:1000D00070E08FEF90E0ACD0CC2369F090E02FEF90
:1000E00039E688E1215030408040E1F700C000004F
:1000F0009F5F9C13F4CF969AC09ACF910895CF93A7
:10010000DF931F92CDB7DD271982B89AC0988E9AD7
:100110009698B998C19A6BD06CED70E08FEF90E033
:1001200087D0D19AD998D09881B38C6181BB82B3A2
:100130008C6182BB41E061E080E895E2EBD07CD04D
:1001400018E004E082B3812782BBCE010196FBD088
:100150008823C1F382B3802782BB898172D081302A
:1001600021F0823009F441C0EDCFC2D07C0100976C
:1001700049F3DC01EC914E2F50E0FA01E254F10911
:10018000E733F10578F5ED5EFF4F0994FC018181BD
:1001900049D028C0DC0111968C9146D023C0FC01C7
:1001A000818144D01FC0DC0111962C9111971296C9
:1001B0006C91862F90E0A0E0B0E0BA2FA92F982F85
:1001C0008827A22BF7012381BC01CD01622B30D0FF
:1001D00009C0DC0111968C91833511F0833711F43D
:1001E0008AE072DFC7016FD1ADCF929AABCF87B3F0
:1001F0008C6187BB88B3837E88BB80B7836880BFF0
:1002000083B7846083BF12BE16BE8FB5816A8FBD6F
:100210008EB58C608EBD1DBC1CBC1BBC1ABC19BC31
:1002200018BC08958ABD089586BF089588BD0895B5
:100230008ABD76BF68BD089510926B00109266006B
:10024000089590916B00913071F028F09230E9F0B0
:100250009330E9F147C08A3A09F046C081E08093C3
:100260006B0080E0089580936A0080916A0090E0BE
:10027000019694D090936800809367001092690073
:1002800082E080936B0080E0089590916900E09196
:100290006700F0916800E90FF11D8083809169008B
:1002A0008F5F809369009091690080916A00981334
:1002B0001DC080916900E0916700F0916800E80F2F
:1002C000F11D108283E080936B0080E008958535F6
:1002D00011F082E001C081E010926B0091E09093F8
:1002E0006600089580E0089580E0089580E0089514
:1002F00080916600882359F0109266008091670013
:10030000909168001092680010926700089580E054
:1003100090E00895CF93DF93D62FC42F899A8898C1
:100320009C0140E050E060E271EA87E090E014D088
:100330002150310932B929B9D111549AC111539AB6
:10034000DF91CF9108955F9B05C02CB1FC01208304
:1003500081E0089580E00895A1E21A2EAA1BBB1B3C
:10036000FD010DC0AA1FBB1FEE1FFF1FA217B30781
:10037000E407F50720F0A21BB30BE40BF50B661F97
:10038000771F881F991F1A9469F76095709580955B
:1003900090959B01AC01BD01CF010895CF93DF93F0
:1003A0008230910510F482E090E0E0916E00F091CF
:1003B0006F0020E030E0C0E0D0E0309711F14081E4
:1003C000518148175907C0F04817590761F48281D5
:1003D0009381209719F09B838A832BC090936F00A1
:1003E00080936E0026C02115310519F0421753077E
:1003F00018F49A01BE01DF01EF010280F381E02DC4
:10040000DCCF2115310509F1281B390B24303105CA
:1004100090F412968D919C9113976115710521F0BE
:10042000FB019383828304C090936F0080936E00DE
:10043000FD01329644C0FD01E20FF31F81939193B9
:10044000225031092D933C933AC020916C00309199
:100450006D00232B41F420916200309163003093B2
:100460006D0020936C002091600030916100211597
:10047000310541F42DB73EB74091640050916500BD
:10048000241B350BE0916C00F0916D00E217F3072F
:10049000A0F42E1B3F0B2817390778F0AC014E5FF4
:1004A0005F4F2417350748F04E0F5F1F50936D00C4
:1004B00040936C008193919302C0E0E0F0E0CF01A3
:1004C000DF91CF9108950F931F93CF93DF93009700
:1004D00009F48CC0FC0132971382128200916E00E5
:1004E00010916F000115110581F420813181820F77
:1004F000931F20916C0030916D002817390779F512
:10050000F0936D00E0936C0071C0D80140E050E0C2
:10051000AE17BF0750F412962D913C911397AD0181
:100520002115310509F1D901F3CF9D01DA0133839A
:10053000228360817181860F971F8217930769F468
:10054000EC0128813981260F371F2E5F3F4F318301
:1005500020838A819B8193838283452B29F4F093A6
:100560006F00E0936E0042C01396FC93EE931297D7
:10057000ED01499159919E01240F351FE217F307B0
:1005800071F480819181840F951F029611969C933E
:100590008E938281938113969C938E931297E0E0C1
:1005A000F0E0D80112968D919C911397009719F065
:1005B000F8018C01F6CF8D919C9198012E5F3F4FF1
:1005C000820F931F20916C0030916D00281739071E
:1005D00069F4309729F410926F0010926E0002C0F7
:1005E0001382128210936D0000936C00DF91CF9103
:0A05F0001F910F910895F894FFCFBA
:0605FA000000700020006B
:00000001FF
