:1000000049C061C060C05FC05EC05DC0B6C15BC0BA
:100010005AC059C058C057C056C055C0A3C153C0DC
:1000200052C051C050C00FC12DC144C143C125C1F0
:1000300005C140C13FC13EC13DC13CC13BC13AC108
:1000400039C138C137C1F6C035C134C133C132C13D
:1000500031C1FDC02FC12EC12DC12CC12BC12AC160
:1000600029C128C127C1EFC00DC124C123C105C1C9
:10007000E5C020C11FC11EC11DC11CC11BC11AC1C9
:1000800019C118C117C1D6C015C114C113C112C1FD
:1000900011C1DDC011241FBECFEDCDBF20E0A6E60B
:1000A000B0E001C01D92A637B207E1F710E0A0E66C
:1000B000B0E0E8EEF7E002C005900D92A636B10779
:1000C000D9F757D08FC39CCFCF93C82F949860E0B7
:1000D00070E08FEF90E027D1CC2369F090E02FEF14
:1000E00039E688E1215030408040E1F700C000004F
:1000F0009F5F9C13F4CF969AC09ACF910895CF93A7
:10010000C82F66E27BEF8FEF90E00DD1CC2369F032
:1001100090E02FEF39E688E1215030408040E1F750
:1001200000C000009F5F9C13F4CF969A9FEF24E3DA
:100130003CE0915020403040E1F700C0000096982C
:1001400066E27BEF8FEF90E0EED0CF910895CF93F2
:10015000DF9300D0CDB7DD2783E4898381E08A83F4
:1001600062E0CE010196B4D1CE5FCDBFDF91CF91D9
:100170000895CF93DF931F92CDB7DD271982B89AE8
:10018000C0988E9A9698B998C19A06B3027097D083
:1001900060E070E0CB01C7D08FE7C9D081B38C613C
:1001A00081BB82B38C6182BB41E061E080E895E273
:1001B000A3D120D178946894FF24F3F86894EE24B6
:1001C000E2F801C0012F82B38F2582BB16B31270F3
:1001D000011729F0111102C0ACD001C0BBD0BDD0B5
:1001E000029708F0B4DFB9D00A9710F081E06CDF15
:1001F000CE0101969FD1882329F382B38E2582BB3D
:100200008981FDD0813021F0823009F456C0DACFE7
:100210004DD16C010097B1F2DC01EC914E2F50E012
:10022000FA01E254F109E733F10508F043C0ED5E4D
:10023000FF4F0994FC01818170D03CC0DC01119614
:100240008C916DD037C0FC0181816BD033C0DC0153
:1002500011962C91119712966C91862F90E0A0E048
:10026000B0E0BA2FA92F982F8827A22BF60123815F
:10027000BC01CD01622B57D01DC0DC0111968C91C1
:1002800056D018C0FC018181863061F018F48823B3
:1002900031F010C0893049F08A3051F00BC08FE046
:1002A00013DF08C08FE02BDF05C080E028DF02C02D
:1002B00080E00ADFC601FED185CF929A83CF1092EB
:1002C000710010926D0010926C0010926F001092ED
:1002D0006E001092700087B38C6187BB88B3837EF9
:1002E00088BBD19AD998D09880B7836880BF83B7EC
:1002F000846083BF89B7866089BF12BE16BE1CBEEC
:100300008FB5816A8FBD8EB58C608EBD1DBC1CBC47
:100310001BBC1ABC19BC18BC08958ABD089586BFC1
:10032000089588BD08958ABD76BF68BD08958CBFC5
:1003300008958FB7F89410926D0010926C0010928F
:100340006F0010926E001092700091E09093710017
:100350008FBF089510927100089580916C00909164
:100360006D0008951F920F920FB60F921124D99825
:100370000F900FBE0F901F9018951F920F920FB6FF
:100380000F9211242F933F938F939F93D99A80912B
:100390007100882331F180916E0090916F009C0173
:1003A0002F5F3F4F30936F0020936E008A37910587
:1003B000C1F410926F0010926E0080916C009091C9
:1003C0006D009C012F5F3F4F30936D0020936C00B8
:1003D000019639F410926D0010926C0081E08093C8
:1003E00070009F918F913F912F910F900FBE0F90B2
:1003F0001F90189510926B001092660008959091CE
:100400006B00913071F028F09230E9F09330E9F10F
:1004100047C08A3A09F046C081E080936B0080E0D3
:10042000089580936A0080916A0090E00196ADD0B3
:1004300090936800809367001092690082E0809337
:100440006B0080E0089590916900E0916700F09161
:100450006800E90FF11D8083809169008F5F8093B0
:1004600069009091690080916A0098131DC0809185
:100470006900E0916700F0916800E80FF11D1082BB
:1004800083E080936B0080E00895853511F082E071
:1004900001C081E010926B0091E090936600089596
:1004A00080E0089580E0089580E0089580916600DE
:1004B000882359F01092660080916700909168003F
:1004C0001092680010926700089580E090E008950F
:1004D0001F93CF93DF93EC01162F8AEA26D0812F4A
:1004E00024D0112319F0888120D0FDCF85E51DD0BF
:1004F000DF91CF911F910895CF93DF93D62FC42F13
:10050000899A88989C0140E050E060E271EA87E0B7
:1005100090E019D02150310932B929B9D111549A3A
:10052000C111539ADF91CF9108955D9BFECF8CB995
:1005300081E008955F9B05C02CB1FC01208381E020
:10054000089580E00895A1E21A2EAA1BBB1BFD01AD
:100550000DC0AA1FBB1FEE1FFF1FA217B307E407A2
:10056000F50720F0A21BB30BE40BF50B661F771FFA
:10057000881F991F1A9469F76095709580959095DA
:100580009B01AC01BD01CF010895CF93DF93823071
:10059000910510F482E090E0E0917400F091750014
:1005A00020E030E0C0E0D0E0309711F1408151818F
:1005B00048175907C0F04817590761F482819381A1
:1005C000209719F09B838A832BC0909375008093AA
:1005D000740026C02115310519F04217530718F48D
:1005E0009A01BE01DF01EF010280F381E02DDCCF33
:1005F0002115310509F1281B390B2430310590F400
:1006000012968D919C9113976115710521F0FB0154
:100610009383828304C09093750080937400FD01DE
:10062000329644C0FD01E20FF31F81939193225053
:1006300031092D933C933AC02091720030917300A0
:10064000232B41F4209162003091630030937300BA
:1006500020937200209160003091610021153105D6
:1006600041F42DB73EB74091640050916500241BC2
:10067000350BE0917200F0917300E217F307A0F4DC
:100680002E1B3F0B2817390778F0AC014E5F5F4FE8
:100690002417350748F04E0F5F1F509373004093A7
:1006A00072008193919302C0E0E0F0E0CF01DF910E
:1006B000CF9108950F931F93CF93DF93009709F481
:1006C0008CC0FC0132971382128200917400109149
:1006D00075000115110581F420813181820F931F6E
:1006E00020917200309173002817390779F5F09343
:1006F0007300E093720071C0D80140E050E0AE1783
:10070000BF0750F412962D913C911397AD0121151E
:10071000310509F1D901F3CF9D01DA013383228339
:1007200060817181860F971F8217930769F4EC012E
:1007300028813981260F371F2E5F3F4F3183208359
:100740008A819B8193838283452B29F4F0937500E2
:10075000E093740042C01396FC93EE931297ED0160
:10076000499159919E01240F351FE217F30771F447
:1007700080819181840F951F029611969C938E9390
:100780008281938113969C938E931297E0E0F0E020
:10079000D80112968D919C911397009719F0F8014A
:1007A0008C01F6CF8D919C9198012E5F3F4F820F67
:1007B000931F20917200309173002817390769F454
:1007C000309729F4109275001092740002C01382C1
:1007D00012821093730000937200DF91CF911F91EA
:0807E0000F910895F894FFCF7A
:0607E80000007600200075
:00000001FF
